:020000040800F2
:10000000E810002041610008D15C0008D35C0008C2
:10001000D55C0008D75C0008D95C0008000000002F
:10002000000000000000000000000000DB5C000891
:10003000DD5C000800000000DF5C0008E15C0008F7
:1000400085620008896200088D620008E95C00088A
:1000500091620008956200082B5E0008435E00086C
:10006000996200085B5E0008735E00089D620008EC
:10007000FD5C0008115D0008295D0008535D000863
:100080006B5D0008835D0008A16200089B5D0008AD
:100090009D5D0008CD5D0008D75D00088B5E0008FF
:1000A000A5620008A9620008AD620008B1620008FC
:1000B000B5620008B9620008BD620008C1620008AC
:1000C000C5620008C9620008CD620008E15D000851
:1000D000D1620008E35D0008FB5D0008135E0008C4
:1000E000A75E0008D5620008A75D0008D962000875
:1000F000DD620008E1620008E5620008E9620008CC
:100100000000000000000000ED620008F16200083D
:10011000F5620008F9620008FD620008016300084A
:100120000563000809630008C35E00080D6300084A
:100130001163000815630008196300081D630008B7
:1001400000000000000000000000000000000000AF
:10015000D95D0008DB5D0008DD5D0008DF5D00089B
:10016000A95D0008216300082563000829630008D1
:100170002D63000831630008000000002DE9F04FF6
:10018000A1B08246002016461D4602910B900DF14B
:1001900044086FF000490AE016F8011B0298D047A6
:1001A0000028029000F0B3820B98401C0B9030782E
:1001B000010001D10B98ACE22528EDD1002005907B
:1001C00006900790089009900A9001E040F0010025
:1001D00016F8011F2029F9D023290DD02B2904D08E
:1001E0002D2906D030290AD00CE040F0020080B260
:1001F000EEE740F00400FAE740F00800F7E740F0CF
:100200001000F4E72A290ED12968296051F8042B3F
:100210002960002A0D9204D5514240F004000D914E
:1002200080B2761C11E000210D9109E00D9949453D
:1002300005D001EB810302EB430130390D91761CAF
:100240003278A2F130010A29F0D331782E2903D077
:100250004FF0FF310C911DE016F8011F2A2907D13C
:1002600029682960761C51F8042B29600C9211E052
:1002700000210C9109E00C99494505D001EB81035F
:1002800002EB430130390C91761C3278A2F1300137
:100290000A29F0D3ADF838000FF6F820317800F0D5
:1002A00087FD08B116F8010B8DF83A009DF83A0069
:1002B000682802BF31786829622005D06C2804BF05
:1002C00030786C2803D171208DF83A00761C11A883
:1002D000049016F8017BB7F1250024D020380228BD
:1002E00040F2C380133800F0EA800B3800F05A81E6
:1002F000401E00F03081401E022840F2B680001FF0
:1003000000F02981401F00F08180401E00F0D7805E
:10031000401E24D0C01E0BD0801E00F0D080C01E16
:1003200000F0CD8048E125208DF8440001204DE10A
:100330002868286050F8044B286003940C9F002F15
:1003400004D5204600F040FD074606E03A4600216D
:10035000204600F055FD00B1071B069737E12968DC
:100360002960002251F8040B29600021CDE9000129
:1003700011A80390DDE900019142049F08BF90425B
:100380004FF03C0C01D10C9AC2B100F00F03303396
:10039000DBB23A2BA8BF2733ACF101020009BB54F2
:1003A000944640EA017009090022914208BF904238
:1003B00004D0039A07EB0C039A42E6D307EB0C0038
:1003C0000390CCF13C010C980691814209DA401A65
:1003D00008904FF6EF71BDF838000840ADF83800CE
:1003E000F5E0002840F1F3809DF8380000F014009B
:1003F000102840F0EC800D98059A801A089A801A0F
:10040000401A0128C0F2E3800890E0E09DF83A002D
:1004100062281AD0682806D06A280CD06C281CD014
:10042000712808D019E02868286050F8041B28605B
:100430000B980880CBE02868286050F8042B2860CF
:100440000B98C117C2E90001C1E02868286050F884
:10045000041B28600B980870B9E02868286050F8E1
:10046000041B28600B980860B1E02868C01D6FF07D
:10047000070101EA00022A60D2E9000108322A607D
:10048000CDE90001002902D505982D210AE0BDF82B
:100490003800810702D505982B2103E0C00705D558
:1004A0000598202108F80010401C059011A8059916
:1004B000084403903946684600F0ECF987E09DF85F
:1004C0003A006C280FD0712818BF6A280BD1286811
:1004D000C01D6FF0070101EA00022A60D2E90001A5
:1004E00008322A6005E02968296051F8040B296068
:1004F0000021CDE900019DF83A00682803D1DDE92B
:10050000000180B20BE0622803D1DDE90001C0B236
:1005100005E0742818BF7A2804D1DDE90001002124
:10052000CDE900019DF83800000732D5DDE9002350
:100530000020834208BF82422BD047F02000782859
:1005400027D10598302108F80010401C411C059166
:1005500008F800701DE09DF83A00294600F0DCF82C
:10056000CDE90001DDE9002300218B4202DA059884
:100570002D210AE0BDF83800810702D505982B210E
:1005800003E0C00705D50598202108F80010401C9D
:10059000059011A80599084403903946684600F073
:1005A000F3F814E0012005902868286050F8041B37
:1005B00028608DF844100AE025208DF844000120C1
:1005C0000590380003D088F80170022005900D983E
:1005D0000599401A0899401A0699401A0999401A33
:1005E0000799401A0A99471A9DF83800400710D415
:1005F0002020012F8DF840000BDB3C46012310AA80
:100600006946504600F0AEFB002840F08080641E32
:10061000F4D1DDF814B0BBF1000F11AC0CD014F81C
:10062000011B0298D0470028029070D00B98401C04
:10063000BBF1010B0B90F2D130208DF84000089CEB
:10064000012C09DB012310AA6946504600F08AFB01
:1006500000285CD1641EF5D1DDF818B0039CBBF115
:10066000000F0CD014F8011B0298D047002802900C
:100670004DD00B98401CBBF1010B0B90F2D13020F8
:100680008DF84000099C012C09DB012310AA694662
:10069000504600F067FB002839D1641EF5D103985D
:1006A0000699DDF81CB04418BBF1000F0BD014F80C
:1006B000011B0298D047029048B30B98401CBBF135
:1006C000010B0B90F3D130208DF840000A9C012CD7
:1006D00008DB012310AA6946504600F043FBB0B97D
:1006E000641EF6D19DF8380040077FF560AD2020EC
:1006F000012F8DF84000FFF65AAD012310AA69467C
:10070000504600F02FFB10B97F1EF6D14FE54FF099
:10071000FF3021B0BDE8F08F622827D068281ED0B6
:100720006A2808D06C2828D0712804D0742824D0D6
:100730007A280DD021E00868C01D6FF00702104034
:100740000860D0E900230830086019461046704759
:100750000A680A6052F8040B0A60002170470A68B0
:100760000A6052F8040B0A6000B20BE00A680A60E3
:1007700052F8040B0A6040B204E00A680A6052F8BA
:10078000040B0A60C11770472DE9F343054608467C
:100790002F696F2808BF082405D041F0200178296F
:1007A00014BF0A2410243C26D5E90023642818BF6E
:1007B00069289046994606D100218B4203DAD8F188
:1007C000000869EB49090020814508BF80450CD12C
:1007D000286B50B9082C38D195F83800000734D56B
:1007E00030203B2687F83B002FE0701E0090064625
:1007F000404649462246E31700F02EFB02F1300046
:10080000C0B23A2803DB9DF8041051390818B855D6
:10081000494640462246E31700F01EFB80468946C3
:100820000020814508BF804503D0E868B919884297
:10083000DBD3082C09D195F83800000705D5B85D41
:10084000302802D0761E3020B855B919E960C6F1BB
:100850003C00296BA861884208DA081A28624FF622
:10086000EF71288F08402887BDE8F38300290ED553
:1008700095F8381001F01401102908D1696B6A69E4
:10088000891A2A6A891A0E1A012EA8BF2E62BDE89B
:10089000F38300002DE9F34F8BB0D0E90089006BA2
:1008A000002801AF48BF062005D404BF41F0200056
:1008B000672802D101200B99086340F2FF720B9860
:1008C0004168C1F30A50904220D1080302BF0B983F
:1008D000006800280AD10B99032088619DF8300038
:1008E00061381A285BD30FF2C04109E00B9903204D
:1008F00088619DF8300061381A284DD30FF2A0416D
:100900000B98C068032200F01FFB09E1012807DAF9
:100910000B9800F054FB012802DB00230026F6E0D0
:100920000B9ADFF864B1526840F2FE3161F31E5257
:100930000B994A6040F2FE31401A00B247F29751DB
:100940004843524980FB01214E134046494600224C
:10095000002306EBD67600F055FB36B238BF89F09F
:100960000049C6F10707012F92461BDBF80707D5A0
:1009700052465B464046494600F05CFB804689464D
:100980005046594652465B467F1000F053FB002FFD
:1009900082468B46EAD126E00FF20041B0E70FF223
:1009A0000441ADE77F420024394D12E0F80707D536
:1009B00052465B462046294600F03CFB04460D4665
:1009C0005046594652465B4600F034FB7F10824643
:1009D0008B46002FEAD14046494622462B4600F07E
:1009E000FBFB804689469DF830000B99DFF8A4B0E8
:1009F000096B40F02005662D0CBF06F10A000620A9
:100A00004718142FA8BF132730208DF804000DF1CC
:100A10000504012F42DB4046494600F009FD01462E
:100A200004F1080204231C4CA1FB04EC4FEADC0C8B
:100A30000CEB8C04A1EB4401303102F8011CDFF80F
:100A400058E0ACFB0EE14FEAD10E0EEB8E04ACEB9E
:100A5000440430345B1E714602F8024DE3D1083F76
:100A6000012F02F10804D4DB00F0F8FC02460B462B
:100A70004046494600F000FD00225B4600F0DAFAED
:100A800080468946C7E700BF0000244089B5F814B6
:100A90000000F03F84D79741CDCCCCCC0DF10500C0
:100AA000201A0DF1050702E0401E761E7F1C3978E2
:100AB0003029F9D0662D08BF711C03D0652D0CBFFD
:100AC000012100210B9A126B8B181BB29842B8BF00
:100AD00003461BB219001AD4814204DA785C352827
:100AE000A8BF392000DA30207A18521E00E05B1EC1
:100AF00012F80149491E8442F9D0392802D1785CA4
:100B0000401C7854002902D57F1E5B1C761C36B22F
:100B10009DF830100B9800961BB23A4600F003F88F
:100B20000DB0BDE8F08F2DE9F04786B006468A4645
:100B300090461D4600F07DFD012D406A376B90F810
:100B4000009002DA01250FF264284AF02000BDF976
:100B50003840662808BF641C13D0672840F08A809C
:100B600014F1040F75DBBC4273DA96F83800641C8C
:100B7000000702D4BD42B8BF2F4624B23F1B48BF76
:100B8000002724B2F068B169012C23DA4A1C302313
:100B90004354012F03DA96F83800000703D5F068B4
:100BA00000F80290521CE742B8BF7C4224B2604277
:100BB0007062E719AF42B261B8BF3D46F068B369F1
:100BC0002DB2F5612A464146184400F0BDF9781B64
:100BD000B062B0E022469542084416DA2A46414601
:100BE00000F0B2F9B1696918601B012FB161706240
:100BF00003DA96F83800000705D5F06800F8019090
:100C0000F069401CF061B76295E0414600F09CF944
:100C1000B06920182D1B012F03DA96F83810090748
:100C200003D5F16801F80090401CB0612DB2AF42CD
:100C3000B8BF3D46F068B3692DB22A4608EB0401FF
:100C4000184400F081F9B0692818B061781B70620F
:100C500071E0BD4204DA96F83810090758BF2F46F4
:100C60007F1E48BF0027BAF1670F0CBF4FF0650A1F
:100C70004FF0450AB169F368481CB061012F18F8BC
:100C8000012B5A5403DA96F83810090717D5F16882
:100C9000431CB36101F80090012F10DB6D1E2DB2D3
:100CA000AF42B8BF3D46F0682DB22A4641461844CF
:100CB00000F04AF9B0692818B061781B7062F068DA
:100CC000B1690144200081F800A004D42B204870B1
:100CD00001F1020804E02D224A7001F10208644289
:100CE000002502AF08E00A22684600F0BBFC01982C
:100CF00007F8010B6D1C009C21B20129F3DA022DCB
:100D000006DA4AF02000652804BF302008F8010BFD
:100D10004DB9302008F8010B07E06D1E02A8405DB8
:100D2000303008F8010B012DF7DAF068B16908449A
:100D3000A8EB0000F06196F8380000F014001028CD
:100D40000DD17069B1690818716A0818F16908183D
:100D5000B16A0818716B8842BCBF081A306206B0CD
:100D6000BDE8F087F8B504460D4616461F4600203C
:100D700077B116F8011BA868A047A86030B1E86AEF
:100D8000401CE86200207F1EF3D1F2BD4FF0FF301F
:100D9000F2BD0000686A6C747A4C00006E616E00EF
:100DA0004E414E00696E6600494E46003000CC440C
:100DB0000278C9B28A421AB11CBF10F8012FF9E7B4
:100DC00018BF00207047000000F10103810704D024
:100DD00010F8011B89B18107FAD10268B2F1013123
:100DE000914311F0803F04BF50F8042FF6E710F84C
:100DF000011B11B110F8011BFBE7C01A704700007E
:100E0000C9B2830706D0521E22D310F8013B994283
:100E1000F7D11FE0083A13D302F1040241EA01219D
:100E200041EA014150F8043B121F21BF4B40A3F19E
:100E3000013C2CEA030C1CF0803FF3D0C9B2001F28
:100E4000083210F8013B521E28BF91EA030FF8D870
:100E500018BF0120401E70471B4213D1094236D1F2
:100E60002AB18446B0FBF2F002FB10C2704700F0DA
:100E700001BCFCD30022002370470B0002000021BC
:100E800000207047904271EB030CF6D370B5B1FAB5
:100E900081F4B3FA83F52C1BA340C4F1200532FA88
:100EA00005F63343A2405FF00046E64002E05B08EF
:100EB0005FEA3202841A71EB030524BF20462946FB
:100EC0007641F4D302000B003000002170BD012AEE
:100ED000CFD970B5140C20D0B1FA81F4B2FA82F5F2
:100EE000C4F120046419B4F12006D6D3B2405FF0F7
:100EF0000044F440002502E052085FEA3303C61ABA
:100F000071EB020E24BF3046714664416D41F3D34C
:100F100002000B002000290070BD0C46B1FBF2F16D
:100F200002FB11452D0445EA1045B5FBF2F402FB26
:100F3000145580B240EA0545B5FBF2F002FB1052B1
:100F400040EA044070BD000062B38B0708D0521E17
:100F500011F8013B00F8013B00F024808B07F6D12B
:100F6000830740F0208000BF103A07D330B4B1E8C7
:100F70003810103AA0E83810F9D230BC530724BF1B
:100F8000B1E80810A0E8081044BF51F8043B40F84D
:100F9000043BD20724BF31F8022B20F8022B44BFB8
:100FA0000B7803707047083A07D3B1E80810083A85
:100FB00040F8043B40F804CBF7D25307E4E730B4E1
:100FC000436803F000420121C3F313034360002B85
:100FD00004BF0368002B08D10DE00368DD0F45EA6C
:100FE000440444605B000360491E4468E302F4D596
:100FF000C4F31303436043681A434260084630BC9D
:10100000704700004FF4001C1CEB410F94BF1CEB19
:10101000430F09E041EA030C50EA4C0C52EA0C0C75
:1010200003D2994208BF9042704714BF8B4282425C
:1010300070470000B0B581EA030C0CF0004C40F2A0
:10104000FF7515EA11541DBF15EA1357AC42AF42A4
:1010500039E0E41923EA455343F48013C90241F00F
:10106000004141EA505EC7021100A7FB02020028BE
:101070004FF00000EEFB01204FF00001E3FB0721E1
:1010800018BF42F00102401800214941E3FB0E0164
:10109000A4F580640F0302D252004041494154F14B
:1010A00001046CDD470872F1004250F1000051EB81
:1010B0000451A1F580115CBF41EA0C01B0BD4CEABE
:1010C00005510020B0BD05EA1357AC4214BFAF4232
:1010D00041E050EA410E1CBF52EA430E02E0614675
:1010E0000020B0BD24423C441BD15FEA070EF6D07D
:1010F000090302BF01460020AEF1140EB1FA81F7D8
:10110000AEEB070401FA07FE0C37C7F1200100FA25
:1011100007F7C8404EEA000E23EA455343F4801314
:10112000A2E733F00043B3FA83F704BFB2FA82FEBA
:1011300077440B3FE41BB7F1200E2FBF02FA0EF3EA
:10114000BB40C7F1200E22FA0EFE38BF43EA0E0361
:10115000BA40641C82E750EA410E14BF52EA430EC3
:101160006FF000014FF4001717EB430F8ABF1946C9
:1011700017EB410FB5E74CEA05510020B0BDD4F1A3
:101180000104B4F120070FDAC4F12007520828BF88
:1011900042F0010210FA07F501FA07F7E1BF2A430E
:1011A000E0403843E1400FE0352C98DCC7F12004E3
:1011B00052EA400220FA07F218BF42F0010231FA67
:1011C00007F0A1400A43002172F1004250F10000F3
:1011D00051EB0C01B0BD00002DE9F04140F2FF756C
:1011E00081EA030C0CF0004C15EA11541DBF15EAFE
:1011F0001357AC42AF42E9E0BC41C1F31301C3F362
:101200001303801A994143F4801304D2641E4000F2
:10121000494180185941C90241EA5051B1FBF3F6E6
:1012200003FB1611A2FB0675D7EBC020A94102D221
:10123000761E80185941C90241EA5051B1FBF3FEB4
:1012400003FB1E11A2FB0E75D7EBC020A94103D2F0
:10125000AEF1010E80185941890241EA905176059C
:1012600046EA8E2EB1FBF3F603FB1611A2FB0675C0
:10127000D7EB8020A94102D2761E80185941C902BD
:1012800041EA50514EEA060EB1FBF3F603FB16118C
:10129000A2FB0675D7EBC020A94102D2761E8018AA
:1012A0005941C90241EA5051B1FBF3F703FB171151
:1012B000A2FB0735D3EBC020A94167F100070CBFA3
:1012C000004247F0010766F3D5274FEA1E31B80800
:1012D00014F5806414DDBD0775F1004250EB0E502B
:1012E00051EB045111F5801F5CBF41EA0C01BDE8D0
:1012F000F0814CF07F6141F0E0410020BDE8F081D9
:10130000BD076D0840EA0E5041F48011D4F101048C
:10131000B4F120060ADAC4F120060200E04001FA26
:1013200006F3E1401843B24015430EE0342C14DCC0
:10133000C6F1200445EA40056D0820FA06F215437F
:1013400021FA06F0A1400D43002175F1004250F151
:10135000000051EB0C01BDE8F08100205FEA0C01B8
:10136000BDE8F081CFB992185B41B3FA83F704BFAF
:10137000B2FA82F6BF190B3FB7F120062FBF02FA6F
:1013800006F3BB40C7F1200622FA06F638BF334306
:10139000BA401CB1E419641E2FE77F4231F00041CE
:1013A000B1FA81F404BFB0FA80F6A4190B3CB4F191
:1013B00020062FBF00FA06F1A140C4F1200620FA52
:1013C00006F638BF3143A0403C1B16E7AC421ABFBB
:1013D00005EA1357AF4214E050EA41061CBF52EA37
:1013E0004306BFE750EA4107304661461CBF41EA69
:1013F0000551BDE8F08152EA430C08BFC143BDE886
:10140000F08100204FF4001616EB410F98BF16EB49
:10141000430F08BF16EB410F24BFC14305E016EB95
:10142000430F0CBF61464CEA0551BDE8F081000056
:10143000400D40EAC120490080F00D8040F000409E
:10144000490DA1F58061491C05D4D1F11F0154BF9C
:10145000C840C01770474FF000007047010000BF40
:1014600009D0B0FA80F18840C91CC1F58461090532
:1014700001EBD02140057047F0B44FF0004591EAF0
:10148000030F44BF6B4000F001B900BF841A71EB39
:10149000030604D26E40001BB141121973414FF490
:1014A000001C1CEB410F34BF7CEB430684E00C0DA9
:1014B000A4EB1356362E7DDC012E43DC45EAC32314
:1014C00043EA525312BFD20292025B08240545EA56
:1014D000C12141EA5051D2EBC020994125D407D116
:1014E000B0FA80F610FA06F164D00020203608E049
:1014F000B1FA81F6B140C6F1200220FA02F211439E
:10150000B0404FEAF474B4EB465434F001064FEAAD
:1015100074040AD8D6F50016760D04F00044F040A5
:1015200061FA06F25040F1404840C00A40EA41509A
:1015300021F0004128BF5FEA500550F1000044EB64
:10154000D12137E045EAC323DB0A45EAC121C90AB4
:10155000B6F120050EDD42EA0242120CC5F120066A
:1015600003FA06F6EB4042EA06056D42984161F146
:1015700000010DE062FA06F5F240554063FA06FC00
:1015800082EA0C02F3405A406D42904161EB030144
:1015900011F4801F05D1641E620502D06D00404128
:1015A000494121F48011430875F1004350F10000D6
:1015B00041EB0451F0BC70471CEB410F15D223F0F6
:1015C000004352EA43060BD04FEA4C0CBCEB410FF0
:1015D00004D80C0D661E342EB7DDEBE7801A994156
:1015E00050EA410608BF0021E4E708BF1CEB430FA7
:1015F00028BF6FF00001DDE780B51348C046C04644
:101600000FF24C020FF244010160426241600FF29E
:101610004402826381600FF24402C1600161416152
:1016200081618162C16201634163C263016441649B
:1016300001BD10B50448C046C0460446206808B93C
:10164000FFF7DAFF204610BD540000200000000024
:101650002E00000066616C73650000007472756591
:101660000000000091FBF2F303FB1211C0E900310E
:101670007047000070470000F0B44FF0004591EA59
:10168000030C44BF6B40FFF701BF00BF841A71EB2E
:10169000030603D2001BB141121973414FF4001C21
:1016A0001CEB410F34BF7CEB430443E00C0DA4EB77
:1016B0001356352E50DC45EAC323DB0A45EAC12127
:1016C000C912B6F120050DDD63FA05F6EB4086EA96
:1016D0000305124218BF45F00105C01851F1000181
:1016E0000CD213E062FA06F5F2405540F3415A403D
:1016F000B340F3405A408018594107D349085FEA84
:1017000030005FEA350528BF45F0010501F580117D
:10171000420875F1004250F1000041EB0451F0BC69
:101720004FF4001C1CEB410F38BF70470020090D1F
:10173000090570471CEB410F10D252EA43060BD04B
:10174000BCEB410F05D80C0DAB43661E342EB5DD46
:1017500002E0AB4380185941F0BC7047F0BC7047C1
:1017600010F00702DFF8B83A1B6819004FF6FF03C4
:101770001940DFF8B03A53EA02231943DFF8A03AE0
:1017800019607047DFF8980A0068C0F302207047BC
:10179000012110F01F029140DFF88C2A40B243096A
:1017A00042F82310704710B440B2002809D50A014E
:1017B000DFF8783A40B210F00F04234403F8042C09
:1017C00004E00A01DFF8683A40B21A5410BC7047CE
:1017D00070B4030013F00704D4F10706052E01D3FB
:1017E000042001E0D4F10700261D072E01D20025B8
:1017F00000E0E51E012616FA00F0401E0840A84051
:101800000121A940491E1140084370BC7047F8B53A
:1018100004000D0016001F00684600F0C0FDADF882
:1018200000708DF803508DF802606946200000F0CA
:101830001BFDF1BD80B50121012001F004FA012159
:10184000042001F000FA0121082001F0FCF9012137
:10185000102001F0F8F901215FF0007000F0B4FDF4
:101860004FF48051DFF8CC0989B201614FF4005187
:10187000DFF8C40989B241614FF40041DFF8BC09C7
:1018800089B201614FF48071DFF8B00989B201615A
:101890000821DFF8A00989B201611021DFF894095D
:1018A00089B241612021DFF88C0989B241614FF48E
:1018B0008071DFF8800989B241614FF40071DFF86F
:1018C000740989B241614FF4805302221021DFF87C
:1018D0006409FFF79CFF4FF4005302221021DFF848
:1018E0005809FFF794FF4FF4004302221021DFF85C
:1018F0004C09FFF78CFF4FF4807302220421DFF8BC
:101900003C09FFF784FF082302220421DFF82409A1
:10191000FFF77DFF102302221021DFF81809FFF7DF
:1019200076FF202302221021DFF80809FFF76FFF5E
:101930004FF4807302221021DFF8F808FFF767FFE9
:101940004FF4007302221021DFF8E808FFF75FFF71
:1019500001BD80B50320FFF703FFFFF713FF00224F
:101960000021FFF735FF01000320FFF71CFF0320D4
:10197000FFF70EFFFFF706FF00220021FFF728FF09
:1019800001002520FFF70FFF2520FFF701FFFFF7DC
:10199000F9FE00220021FFF71BFF01002720FFF7BF
:1019A00002FF2720FFF7F4FEFFF7ECFE00220021E4
:1019B000FFF70EFF01002420FFF7F5FE2420FFF7BC
:1019C000E7FEFFF7DFFE00220021FFF701FF010025
:1019D0001320FFF7E8FE1320FFF7DAFEFFF7D2FE31
:1019E00000220021FFF7F4FE01001420FFF7DBFEC8
:1019F0001420FFF7CDFEFFF7C5FE00220021FFF700
:101A0000E7FE01001520FFF7CEFE1520FFF7C0FE10
:101A1000FFF7B8FE00220021FFF7DAFE01000920DF
:101A2000FFF7C1FE0920FFF7B3FEFFF7ABFE002270
:101A30000021FFF7CDFE01001720FFF7B4FE1720AD
:101A4000FFF7A6FE01BDF0B583B004000D0016003F
:101A50001F00684601F0E2F900948DF804508DF8FB
:101A600005608DF80670684601F094F9F7BD80B501
:101A70000821002000F092FF01230C2200214FF4E6
:101A80008070FFF7E0FF4FF4807001F0D0F9032180
:101A9000012000F083FF01230C2200210820FFF722
:101AA000D2FF082001F0C3F901BD80B5012101205A
:101AB00001F0BAF8FFF766FE00220021FFF788FE6A
:101AC00001000B20FFF76FFE0B20FFF761FEFFF711
:101AD00059FE00220021FFF77BFE01000C20FFF7DA
:101AE00062FE0C20FFF754FEFFF74CFE002200219F
:101AF000FFF76EFE01000D20FFF755FE0D20FFF7EA
:101B000047FEFFF73FFE00220021FFF761FE0100C4
:101B10000E20FFF748FE0E20FFF73AFEFFF732FED9
:101B200000220021FFF754FE01000F20FFF73BFECB
:101B30000F20FFF72DFEFFF725FE00220021FFF703
:101B400047FE01001020FFF72EFE1020FFF720FEB9
:101B5000FFF718FE00220021FFF73AFE01001120D6
:101B6000FFF721FE1120FFF713FE0121022001F0F3
:101B70005BF8FFF707FE00220021FFF729FE0100B6
:101B80003A20FFF710FE3A20FFF702FE01BD80B5B4
:101B900001215FF0C05001F065F8012001F06CF9FF
:101BA000042001F085F945F25101884226D001F068
:101BB00069F9012000F04BFF412001F084F8002872
:101BC000FAD04FF4807000F05CFF012000F061FF5C
:101BD00001F0B7F901F0B0F947F6FF7001F09EF996
:101BE00001F0AAF94FF4FA6001F08CF901F0A4F9C0
:101BF00045F25101042001F04DF908E001F0A1F98E
:101C000001F09AF9012001F0A8F901F095F901BD60
:101C10001FB504000121042001F015F801214FF443
:101C2000804001F010F84FF4007302221821DFF811
:101C30000C06FFF7ECFD4FF4806302220421DFF86D
:101C4000FC05FFF7E4FDDFF8F80501F0B3F968469D
:101C500001F0B0FA00940020ADF808000020ADF8C3
:101C600004000020ADF806000C20ADF80A000020AA
:101C7000ADF80C006946DFF8C80501F00DFA012146
:101C8000DFF8BC0501F0A4FA012240F22551DFF88B
:101C9000B00501F0ABFA1FBD1FB5040001210820FB
:101CA00000F0D1FF01215FF4802000F0DBFF4FF452
:101CB000806302221821DFF87C05FFF7A8FD4FF4AE
:101CC000006302220421DFF86C05FFF7A0FDDFF8B6
:101CD000740501F06FF9684601F06CFA0094002079
:101CE000ADF808000020ADF804000020ADF80600B3
:101CF0000C20ADF80A000020ADF80C006946DFF8B2
:101D0000440501F0C9F90121DFF8380501F060FA56
:101D1000012240F22551DFF82C0501F067FA1FBDC2
:101D20004FF40050DFF82015086070474FF4005062
:101D3000DFF818150860704700B591B00121042044
:101D400000F081FF0121082000F07DFF01214FF408
:101D5000007000F078FF4FF4404000F06BFE01236C
:101D600002220021DFF8D404FFF751FD02230222F2
:101D70000021DFF8C804FFF74AFD042302220021F6
:101D8000DFF8B804FFF743FD082302220021DFF843
:101D9000AC04FFF73CFD102302220021DFF89C0475
:101DA000FFF735FD202302220021DFF89004FFF722
:101DB0002EFD402302220021DFF88004FFF727FDDB
:101DC000802302220021DFF87404FFF720FD0123A5
:101DD00002220021DFF85C04FFF719FD0223022232
:101DE0000021DFF85004FFF712FD002000900120D1
:101DF0008DF8050001208DF804005FF4602002904A
:101E00000A208DF81000002003906946DFF8400496
:101E100001F06EFA072301220021DFF8340401F0FB
:101E2000C0FA072302220121DFF8240401F0B9FAE5
:101E3000072303220221DFF8180401F0B2FA072376
:101E400004220321DFF8080401F0ABFA072305227E
:101E50000421DFF8FC0301F0A4FA07230622052180
:101E6000DFF8EC0301F09DFA072307220621DFF8D3
:101E7000E00301F096FA072308220721DFF8D003D8
:101E800001F08FFA072309220821DFF8C40301F0CB
:101E900088FA07230A220921DFF8B40301F081FA46
:101EA0000121DFF8AC0301F0F7FA0121DFF8A0030C
:101EB00001F053FA0121DFF8980301F041FA012003
:101EC00001F051FBDFF8880301F054FADFF88003DA
:101ED00001F055FA0121DFF8780301F055FADFF837
:101EE000740301F083FB00200790DFF86C03069079
:101EF00080200A904FF480600C900A200890DFF850
:101F00005C030590002009904FF480700B904FF413
:101F100000500E9020200D9000200F9005A9DFF8B2
:101F2000340301F0E8FB0121DFF8280301F002FC93
:101F300011B000BD10B586B004000121082000F0EA
:101F400082FE01214FF4804000F08CFE4FF480535C
:101F500002221021DFF8DC02FFF759FC4FF4005396
:101F600002221821DFF8CC02FFF751FC4FF40043A6
:101F700002221821AF48FFF74AFC4FF480430222A7
:101F80000421AC48FFF743FCDFF8D40201F01EFC4B
:101F9000684601F08BFC0020ADF800004FF4827021
:101FA000ADF802000020ADF804000220ADF80600F4
:101FB0000120ADF808004FF40070ADF80A000820C9
:101FC000ADF80C000020ADF80E006946A44801F001
:101FD00037FC0121A24801F07CFC06B010BD10B511
:101FE00084B0040001215FF0007000F03BFE4FF46C
:101FF0000063022248219148FFF709FC4FF4805307
:10200000022218218D48FFF702FC684601F087FD87
:10201000944801F06DFC022001F0A5FA00208DF833
:10202000060000208DF8070000208DF80800002031
:102030008DF8090000208DF80A0000208DF80B00B3
:1020400000208DF80200E4B2002C13D0022C2DD019
:102050001ED3042C45D037D3062C5CD04ED3082C8D
:1020600073D065D30A2C00F08A807BD30B2C00F050
:1020700093809EE04FF41660ADF8000001208DF8CB
:10208000030004208DF8040003208DF805009CE077
:102090004FF49660ADF8000001208DF80300042095
:1020A0008DF8040003208DF805008EE04FF41670C3
:1020B000ADF8000001208DF8030004208DF8040025
:1020C00003208DF8050080E0F020ADF8000001202D
:1020D0008DF8030004208DF8040003208DF805001E
:1020E00073E07820ADF8000001208DF80300042093
:1020F0008DF8040003208DF8050066E06020ADF83F
:10210000000001208DF8030004208DF80400032056
:102110008DF8050059E03020ADF8000001208DF861
:10212000030004208DF8040003208DF805004CE026
:102130001820ADF8000001208DF8030004208DF870
:10214000040003208DF805003FE01420ADF80000E6
:1021500001208DF8030004208DF8040003208DF881
:10216000050032E01020ADF8000001208DF80300DA
:1021700004208DF8040003208DF8050025E00C20D4
:10218000ADF8000001208DF8030007208DF8040051
:1021900002208DF8050018E00C20ADF800000120A9
:1021A0008DF8030004208DF8040003208DF805004D
:1021B0000BE00C20ADF8000001208DF80300042096
:1021C0008DF8040003208DF805006946254801F0CC
:1021D000A0FB1FBD10B5040001220221214801F01F
:1021E00030FE012204211F4801F02BFE01220821AC
:1021F0001C4801F026FE012210211A4801F021FEA0
:1022000001222021174801F01CFE0122402115481F
:1022100001F017FE0121200001F0B5FD10BD000006
:102220000CED00E00000FA0500E100E018ED00E030
:1022300000E400E0000C01400010014000080140F3
:1022400000380140004800401010014014100140C7
:102250000024014008000240082800204C240140CE
:102260000038004000640040F0B500270022002341
:1022700000240025002691F803C01CF00F0C6746CF
:1022800091F803C05FEACC6C03D591F802C05CEA18
:10229000070791F800C05FEA0C6C3AD0D0F800C094
:1022A00065465FF0000C6346082B31D25FF0010CED
:1022B0001CFA03FC6446B1F800C014EA0C0C624638
:1022C000A24223D15FEA830C64465FF00F0C1CFA34
:1022D00004FC6646B54317FA04FC5CEA050591F870
:1022E00003C0BCF1280F06D15FF0010C1CFA03FCFF
:1022F000C0F814C00AE091F803C0BCF1480F05D142
:102300005FF0010C1CFA03FCC0F810C05B1CCBE7AB
:102310000560B1F800C0BCF1FF0F3FDDD0F804C08C
:1023200065465FF0000C6346082B36D25FF0010C67
:1023300013F1080E1CFA0EFC6446B1F800C014EA52
:102340000C0C6246A24226D15FEA830C64465FF021
:102350000F0C1CFA04FC6646B54317FA04FC5CEA51
:10236000050591F803C0BCF1280F07D15FF0010CFF
:1023700013F1080E1CFA0EFCC0F814C091F803C04B
:10238000BCF1480F07D15FF0010C13F1080E1CFAE5
:102390000EFCC0F810C05B1CC6E74560F0BD4FF6F0
:1023A000FF710180022181700421C1707047020019
:1023B0000020936889B20B4202D00123180001E08B
:1023C00000231800C0B27047F0B4B0F1004F40F2E3
:1023D00089800023002420F000473E00F7093B00DD
:1023E00016F07F0637093C0016F00F062700FFB2F3
:1023F000BF0016FA07F73A00002B08D0022B0ED0C8
:1024000009D3042B13D00ED3052B14D017E0DFF81B
:10241000DC753D0013E0DFF8D8753D000FE0DFF814
:10242000D4753D000BE0DFF8D0753D0007E0DFF824
:10243000CC753D0003E0DFF8C8753D00FFE7002CD8
:1024400004D12F683F093F012F6043E0012C18D1D0
:10245000012B0FD1052E06D32F687FF0C00C1CEA8C
:1024600007072F6036E02F687FF0300C1CEA070763
:102470002F602FE02F687FF0F00C1CEA07072F6019
:1024800028E0022C04D12F6837F470672F6021E018
:10249000032C04D12F6837F470472F601AE0042C06
:1024A00004D12F6837F470272F6013E0052C04D176
:1024B0002F6837F470072F600CE0062C04D12F68CA
:1024C00037F070672F6005E0072C03D12F6827F0E5
:1024D00070472F60C9B2012940F05E822F683A43ED
:1024E0002A6059E20200012A00F0A580022A00F0C9
:1024F0009080042A00F08D80082A00F08A80102A3B
:1025000000F0AE80302A00F0C080402A00F0D28077
:10251000C02A00F0E480B2F5807F00F0F580B2F5CB
:10252000007F00F00581B2F5407F00F01381B2F525
:10253000006F00F01F81B2F5406F00F02B81B2F503
:10254000805F66D0B2F5804F00F03481B2F5C04FA5
:1025500000F04081B2F5004F5BD0B2F5803F58D01B
:10256000B2F5003F55D0B2F5802F52D0B2F5002F12
:102570004FD0B2F5801F4CD0B2F5001F00F0BA81E9
:10258000B2F5800F00F0A681B2F5000F00F0928145
:10259000B2F1807F00F02E81B2F1007F00F03A812D
:1025A000B2F1806F00F04681B2F1805F00F072817D
:1025B000B2F1005F00F05E81B2F1804F00F04A811D
:1025C000DFF840349A4200F0A581DFF83C349A42AB
:1025D00000F0A081DFF834349A4200F09B81DFF8EC
:1025E00030349A4200F09681DFF828349A4200F0A5
:1025F000A381DFF824349A4200F0AE81DFF81C3466
:102600009A4200F0B981DFF818349A4200F08281D2
:10261000C2E1DFF8102412688243DFF808341A6040
:10262000C9B2012906D1DFF8FC2312680243DFF8A2
:10263000F4331A60B0E1DFF8EC231268DFF8E83316
:102640001A40DFF8E0331A60C9B2012907D1DFF878
:10265000D423126852F00102DFF8C8331A609BE1FC
:10266000DFF8C02312687FF030031A40DFF8B4337C
:102670001A60C9B2012907D1DFF8A823126852F005
:102680001002DFF8A0331A6086E1DFF898231268A1
:102690007FF030031A40DFF88C331A60C9B2012989
:1026A00007D1DFF88023126852F03002DFF874336C
:1026B0001A6071E1DFF86C2312687FF0C0031A40E2
:1026C000DFF860331A60C9B2012907D1DFF854235B
:1026D000126852F04002DFF84C331A605CE1DFF818
:1026E000442312687FF0C0031A40DFF838331A60C1
:1026F000C9B2012907D1DFF82C23126852F0C002B9
:10270000DFF820331A6047E1DFF81823126832F44B
:102710004072DFF810331A60C9B2012907D1DFF81F
:102720000423126852F48072DFF8F8321A6033E141
:10273000DFF8F022126832F44072DFF8E8321A60F3
:10274000C9B2012905D1B74A126852F40072B54BDB
:102750001A6021E1B34A126832F44072B14B1A6038
:10276000C9B2012905D1AF4A126852F44072AD4B8B
:102770001A6011E1AB4A126832F44062A94B1A6048
:10278000C9B2012905D1A74A126852F40062A54BCB
:102790001A6001E1A34A126832F44062A14B1A6048
:1027A000C9B2012905D19F4A126852F440629D4B7B
:1027B0001A60F1E09B4A126832F4C042994B1A60E9
:1027C000C9B2012905D1974A126852F48042954B4B
:1027D0001A60E1E0934A126832F4C042914B1A60E9
:1027E000C9B2012905D18F4A126852F4C0428D4BFB
:1027F0001A60D1E08B4A126832F0E062894B1A60AD
:10280000C9B2012905D1874A126852F08072854BFE
:102810001A60C1E0834A126832F0E062814B1A60AC
:10282000C9B2012905D17F4A126852F000727D4B6E
:102830001A60B1E07B4A126832F0E062794B1A60AC
:10284000C9B2012905D1774A126852F08062754BEE
:102850001A60A1E0734A126832F08042714B1A602C
:10286000C9B2012905D16F4A126852F080426D4BFE
:102870001A6091E06B4A126832F00052694B1A609C
:10288000C9B2012905D1674A126852F00052654B5E
:102890001A6081E0634A126832F08052614B1A601C
:1028A000C9B2012905D15F4A126852F080525D4BCE
:1028B0001A6071E05B4A126832F40002594B1A60E8
:1028C000C9B2012905D1574A126852F40002554B8A
:1028D0001A6061E0534A126832F48002514B1A6068
:1028E000C9B2012905D14F4A126852F480024D4BFA
:1028F0001A6051E04B4A126832F40012494B1A60D8
:10290000C9B2012905D1474A126852F40012454B59
:102910001A6041E0454A126883029B0A9A43434B7E
:102920001A60C9B2012906D1404A126883029B0A83
:102930001A433E4B1A602FE03C4A126832F4C01230
:102940003A4B1A60C9B2012905D1384A126852F4CB
:102950000022364B1A601FE0344A126832F4C0126B
:10296000324B1A60C9B2012905D1304A126852F4BB
:1029700080122E4B1A600FE02C4A126832F4C012FB
:102980002A4B1A60C9B2012905D1284A126852F4AB
:10299000C012264B1A60FFE7F0BC704730B400222B
:1029A0000F2311F00304E4B2A400A3401A00204B4B
:1029B000C9B28C1053F8243093431D4CC9B28D100A
:1029C00044F825301A4BC9B28C1053F82430C0B2E9
:1029D00011F00304E4B2A40010FA04F42343144CED
:1029E000C9B28D1044F8253030BC7047200001403A
:1029F00024000140280001402C000140300001402B
:102A0000340001402000004000040040000002406B
:102A10000000044000000840000010400000184082
:102A20000000204004000140FEFFFF7F1C00014029
:102A3000080001400021DFF8082312681100DFF8C8
:102A4000082311400143DFF8F8221160704700218C
:102A5000DFF8F82211700021DFF8F0221170C0B207
:102A60000100012902D0042905D009E00121DFF885
:102A7000DC22117004E00521DFF8D0221170FFE79D
:102A80007047DFF8C81209680143DFF8C0221160FF
:102A90007047C0B2DFF8B81208607047F0B4002188
:102AA0000022002300240025DFF89462366816F027
:102AB0000C0632001600002E04D0042E14D0082E6E
:102AC00016D063E0DFF87C623668B60108D5DFF81F
:102AD00084623668B60503D5DFF87C62066002E0E2
:102AE000DFF87862066054E0DFF87062066050E05C
:102AF000DFF84C62366816F480363400DFF8406246
:102B00003668DFF85C723E40330013F0C04F06D1E8
:102B100013F47016B6F5701F01D0022600E00126EE
:102B2000C3F383475B0E13F030033B43F318002CD1
:102B300005D1DFF8306206FB03F6066018E0DFF827
:102B400000623668B6030ED5DFF80862366816F400
:102B500040563100090BDFF804628F1CB6FBF7F614
:102B60005E43066004E0DFF8F46106FB03F60660EE
:102B7000DFF8CC613668002E07D40668DFF8E8710C
:102B8000BE4202D3DFF8E461066002E0DFF8CC6108
:102B90000660DFF8AC613668C6F302163200DFF873
:102BA000A0613668360603D5DFF8C451AD5C00E09D
:102BB00000250668EE404660DFF884613668C6F39B
:102BC00001263200DFF878613668760503D5DFF834
:102BD000A051AD5C00E000254668EE408660584E8E
:102BE0003668C6F3C1263200554E3668B60403D5A2
:102BF000DFF87C51AD5C00E000254668EE40C66021
:102C00004F4E3668C6F3813632004D4E3668F600B8
:102C100001D552F00402574EB65C3500C668B6FBCB
:102C2000F5F60661F0BC7047C9B2002905D0524ADA
:102C300012680243504B1A6004E04F4A1268824304
:102C40004D4B1A607047C9B2002905D04B4A126833
:102C500002434A4B1A6004E0484A12688243474BD9
:102C60001A607047C9B2002905D0454A126802436C
:102C7000434B1A6004E0424A12688243404B1A6098
:102C80007047C9B2002905D03E4A126802433D4B45
:102C90001A6004E03B4A126882433A4B1A6070475C
:102CA000C9B2002905D0384A12680243364B1A606F
:102CB00004E0354A12688243334B1A607047C0B251
:102CC00032490860704710B402000023002400203D
:102CD0001100C9B24909C9B20B00012B03D1174930
:102CE00009680C0008E0022B03D1184909680C00A0
:102CF00002E0274909680C00D2B212F01F010B0054
:102D00002100D940C90702D50121080001E00021B6
:102D10000800C0B210BC7047C0B2012806D10D49EE
:102D2000096851F030010B4A116006E00949096851
:102D30007FF030021140074A1160704700100240D6
:102D40000410024030100240FF3FFFEF201002400D
:102D50003C04424254100240006CDC0200127A0033
:102D600000003C6000093D0001A24A0400A24A04A0
:102D7000746200087C6200081410024018100240BF
:102D80001C1002400C10024010100240400442424D
:102D9000241002400021334A11008279002A36D0E3
:102DA000304A126803689A432E4B1A602E4A126802
:102DB00003689A432C4B1A60027989180A680368E1
:102DC0001A430A60294A126803689A43274B1A601B
:102DD000274A126803689A43254B1A604279102AE1
:102DE0000CD1224A126803681A43204B1A60204A09
:102DF000126803681A431E4B1A600EE0194A11004C
:102E0000427989180A6803681A430A6005E0027962
:102E100089180A6803689A430A60704700210160B4
:102E2000002101710C21417100218171704711490C
:102E3000086070470100002000220A4B1B680B400D
:102E40001A000C4B1B680B4204D0002A02D001234D
:102E5000180001E000231800C0B27047054908605F
:102E600070470000000401400404014008040140D0
:102E70000C04014014040140C0B2014908607047CD
:102E800020000E4280B50120FFF719FF0020FFF758
:102E900016FF01BD81B0002200920C4A0092009AF8
:102EA00012FA80F2009289B2009A116001B0704764
:102EB00081B001000020009004480090009810FAB2
:102EC00081F000900098008801B07047006C0040CD
:102ED0003348008850F0100031490880704730486E
:102EE00000884FF6EF7108402D4908807047002098
:102EF0002C49098808002C49098889B280B250EA17
:102F00000140704710B50400FFF7E2FF200C26498E
:102F1000088024480480FFF7E2FF10BD10B50400CC
:102F2000FFF7D6FF200C10F00F0020490880204842
:102F30000480FFF7D4FF10BD194800888006FBD538
:102F40007047174800884FF6F77108401449088009
:102F5000134800880007FBD5704711490988814351
:102F60000F4A11807047010000200D4A12880A4064
:102F700010000A4A128892B20A4205D0C0B2002854
:102F800002D00122100001E000221000C0B2704700
:102F9000034909888143024A118070470028004094
:102FA000042800401C280040182800400828004041
:102FB0000C28004010B50400764884420AD1012153
:102FC0004FF48040FFF75DFE00214FF48040FFF793
:102FD00058FE60E0704884420AD101215FF400305D
:102FE000FFF75EFE00215FF40030FFF759FE52E06C
:102FF0006A4884420AD101215FF48020FFF750FE25
:1030000000215FF48020FFF74BFE44E064488442D7
:103010000AD101215FF40020FFF742FE00215FF496
:103020000020FFF73DFE36E05E4884420AD10121D0
:103030005FF48010FFF734FE00215FF48010FFF78B
:103040002FFE28E0584884420AD101215FF08070A9
:10305000FFF717FE00215FF08070FFF712FE1AE005
:10306000524884420AD101215FF00070FFF709FE47
:1030700000215FF00070FFF704FE0CE04C48844232
:1030800009D101215FF08060FFF7FBFD00215FF0B7
:103090008060FFF7F6FD10BD2DE9F04786B0040013
:1030A000884600255FF0000A002600275FF000092F
:1030B000B8F80C000028A146208A05004CF6FF70E5
:1030C0000540B8F8060005432582A08905004EF6A4
:1030D000F3100540B8F80400B8F808100843B8F831
:1030E0000A1008430543A581A08A05004FF6FF405A
:1030F0000540B8F80C000543A5826846FFF7CEFCF2
:103100002448814508D02848814505D02748814575
:1031100002D02748814502D10398824601E00298F7
:1031200082464FF47A70A0FB0A01000940EA017060
:103130000909D8F800200023FDF78EFE05004FF4A2
:103140007A70B5FBF0F006004FF47A70B5FBF0F141
:1031500000FB1150000107004FF47A70B7FBF0F14B
:1031600000FB1170B0F5FA7F04D24FF47A70B7FB10
:10317000F0F709E04FF47A70B7FBF0F0471C102F1E
:1031800002D300200700761C57EA0610208106B003
:10319000BDE8F0870038014000440040004800408E
:1031A000004C0040005000400060014000640140BD
:1031B000006801404FF41651016000218180002118
:1031C000C180002101810C21418100218181704752
:1031D000C9B2002904D0828952F40052828104E0ED
:1031E00082894DF6FF731A4082817047F0B4002344
:1031F00000240025002689B240F66A17B94206006D
:103200000F00FFB27F09FFB23B0089B211F01F0728
:103210003C000127A7403D00012B01D10C3604E002
:10322000022B01D1103600E01436D2B2002A03D0AE
:1032300037682F43376002E03768AF433760F0BC30
:103240007047D2B2002A03D0838A0B43838202E004
:10325000838A8B4383827047CA05D20D8280704770
:103260000200002089B2B1F5007F13880B4202D022
:103270000123180001E000231800C0B2704770B4A9
:103280000300002400260025002089B240F66A12BF
:1032900091420A00D2B25209D2B2150089B211F09D
:1032A0001F021600012212FA06F6012D02D19A8998
:1032B000164006E0022D02D11A8A164001E09A8AD1
:1032C00016400A0092B2120A92B21400012212FAB7
:1032D00004F41A881440002E04D0002C02D00122DD
:1032E000100001E000221000C0B270BC7047000066
:1032F00030B40023002244682300DFF8B8412340A3
:103300000C680D7954EA0524234343608468230044
:10331000DFF8A4412340CC688D682C434D7954EAF2
:10332000450423438360C46A230033F470030C7C98
:10333000641E2243D2B253EA0253C36230BC7047C8
:10334000C9B2002904D0826852F00102826003E011
:1033500082685208520082607047C9B2002904D0C6
:10336000826852F48072826003E0826832F4807274
:1033700082607047816851F0080181607047816800
:1033800051F0040181607047C9B2002904D08268FD
:1033900052F4A002826003E0826832F4A0028260EC
:1033A0007047F0B400250024C9B20A2917DBC668AB
:1033B00035000726B1F10A075FF0030C17FB0CF785
:1033C000BE403400A543DBB2B1F10A06032716FB69
:1033D00007F613FA06F634002543C56011E00669C6
:1033E00035000726032711FB07F7BE403400A5432D
:1033F000DBB2032611FB06F613FA06F6340025436A
:103400000561D2B2072A15DA466B35001F26571E12
:103410005FF0050C17FB0CF7BE403400A543C9B2A2
:10342000561E052716FB07F611FA06F6340025434B
:1034300045632FE0D2B20D2A15DA066B35001F2640
:10344000D71F5FF0050C17FB0CF7BE403400A543F7
:10345000C9B2D61F052716FB07F611FA06F6340087
:103460002543056316E0C66A35001F26B2F10D0735
:103470005FF0050C17FB0CF7BE403400A543C9B242
:10348000B2F10D06052716FB07F611FA06F6340011
:103490002543C562F0BC7047C9B2002904D08268D8
:1034A00052F48012826003E0826832F480128260FB
:1034B00070470000FFFEF0FFFDF7F1FD10B440B2D1
:1034C000002808D50A01414B40B210F00F042344F4
:1034D00003F8042C03E00A013D4B40B21A5410BC1F
:1034E000704710B50400601EB0F1807F01D3012049
:1034F0000EE0601E374908600F215FF0FF30FFF7D4
:10350000DDFF0020344908600720344908600020AE
:1035100010BD80B5324800684FF47A71B0FBF1F00D
:1035200030490978B0FBF1F0FFF7DBFF002800D04D
:10353000FEE700215FF0FF30FFF7C0FF01BD2A4822
:1035400000682849097840182749086070472648CC
:1035500000687047884201D3401A03E05FF0FF32F1
:10356000511A4018704770B50400FFF7F0FF0500CE
:10357000260016F1010F02D01A4800783618FFF71E
:10358000E6FF2900FFF7E6FFB042F8D370BD70B444
:103590000025104C2468104E36683200F02606FBD9
:1035A00000F631000C4E366833009342FAD0934255
:1035B00002D25519ED1A02E06519ED1A55198D421E
:1035C00001D21A00EEE770BC7047000018ED00E071
:1035D00000E400E014E000E018E000E010E000E0AB
:1035E00010000020E00000206C28002001684FF649
:1035F000FE72114001600021016000214160002144
:1036000081600021C1606149884206D16049096832
:1036100051F00F015E4A11606CE05E49884206D1AC
:103620005B49096851F0F001594A116062E05A495A
:10363000884206D15649096851F47061544A1160B4
:1036400058E05649884206D15149096851F4704101
:103650004F4A11604EE05249884206D14C490968F0
:1036600051F470214A4A116044E04E49884206D123
:103670004749096851F47001454A11603AE04A49E6
:10368000884206D14249096851F07061404A116090
:1036900030E04649884206D14549096851F00F019A
:1036A000434A116026E04349884206D140490968EF
:1036B00051F0F0013E4A11601CE03F49884206D1BA
:1036C0003B49096851F47061394A116012E03B4985
:1036D000884206D13649096851F47041344A116074
:1036E00008E03749884205D13149096851F4702111
:1036F0002F4A1160704710B4002203681A006FF35C
:103700000E128B680C6A23430C6923434C692343D4
:103710008C692343CC6923434C6A23438C6A23433B
:103720001A430260CB6843600B6883604B68C360D8
:1037300010BC7047C9B2002904D0026852F00102DF
:10374000026004E002684FF6FE731A4002607047A0
:10375000010000200022CB0003D51A4B1B681A0081
:1037600002E0194B1B681A000A4202D0012318001C
:1037700001E000231800C0B27047C10002D50C4917
:10378000086001E00249086070470000080002403C
:10379000040002401C00024030000240440002408D
:1037A000580002406C0002408000024008040240C1
:1037B000040402401C04024030040240440402405D
:1037C00058040240000402400000024010B504000A
:1037D000334884420AD101214FF48050FFF751FA57
:1037E00000214FF48050FFF74CFA28E02D48844226
:1037F0000AD101214FF48040FFF752FA00214FF423
:103800008040FFF74DFA1AE0274884420AD101218F
:103810004FF40040FFF744FA00214FF40040FFF757
:103820003FFA0CE0B4F1402F09D101215FF4803060
:10383000FFF736FA00215FF48030FFF731FA10BD50
:1038400010B4002203881A0012F441528B891B0421
:1038500004D5838853F48073838004E083884FF613
:10386000FF64234083800B884C8823438C88234348
:10387000CC8823430C8923434C8923438C896404DB
:10388000640C2343CC8923431A430280838B4FF279
:10389000FF74234083830B8A038210BC70470000AF
:1038A0000030014000380040003C00400021018011
:1038B00000214180002181800021C18000210181FF
:1038C00000214181002181810021C18107210182E4
:1038D0007047C9B2002904D0028852F04002028029
:1038E00004E002884FF6BF731A4002807047000060
:1038F00010B50400DFF80407844209D101215FF00C
:103900000070FFF7CDF900215FF00070FFF7C8F9F4
:1039100010BD30B402000020002314687FF00205BF
:103920002C401460146854F0010414605468E407D7
:1039300005D44FF6FF74A34201D05B1CF6E7546830
:10394000E40702D40024200073E08C79012C04D118
:10395000146854F08004146004E014687FF080055B
:103960002C401460CC79012C04D1146854F040042C
:10397000146004E014687FF040052C4014600C7A59
:10398000012C04D1146854F02004146004E014687D
:103990007FF020052C4014604C7A012C04D114686F
:1039A00054F01004146004E014687FF010052C40FB
:1039B00014608C7A012C04D1146854F0080414604B
:1039C00004E014687FF008052C401460CC7A012CC8
:1039D00004D1146854F00404146004E014687FF007
:1039E00004052C4014608C78CD782D0655EA84743B
:1039F0000D7954EA05444D7954EA05540D886D1E3D
:103A00002C43D4611468640864001460002423000B
:103A10005468E40705D54FF6FF74A34201D05B1C40
:103A2000F6E75468E40702D50024200001E00124F1
:103A30002000C0B230BC704730B4002201238C7A21
:103A4000A3401A00D0F8003253F00103C0F800324E
:103A5000D0F81C329343C0F81C320B7B002B16D1DC
:103A6000D0F80C329343C0F80C328B7A00EBC303CE
:103A7000CC884D8855EA0444C3F840428B7A00EB69
:103A8000C3038C880D8855EA0444C3F844420B7B79
:103A9000012B16D1D0F80C321343C0F80C328B7ABC
:103AA00000EBC3030C884D8855EA0444C3F8404238
:103AB0008B7A00EBC3038C88CD8855EA0444C3F8A5
:103AC0004442CB7A002B05D1D0F804329343C0F89E
:103AD000043204E0D0F804321343C0F804320B89F6
:103AE000002B04D1D0F814329343C0F814320B8960
:103AF000012B04D1D0F814321343C0F814324B7B9D
:103B0000012B04D1D0F81C321343C0F81C32D0F87A
:103B100000325B085B00C0F8003230BC7047002107
:103B200081710021C17100210172002141720021C7
:103B300081720021C172002181700021C1700321B6
:103B400001710221417101210180704730B40200EE
:103B5000002093685B0102D5002318000DE09368F4
:103B60001B0102D50123180007E09368DB0002D592
:103B70000223180001E004231800C0B2042875D005
:103B8000C0B203011344D3F8803113F00103C0B273
:103B900004011444C4F880310B7A002B0FD1C0B259
:103BA00003011344D3F880310C684D7A55EA44542C
:103BB0002343C0B204011444C4F8803110E0C0B201
:103BC00003011344D3F880314C680D7A55EAC404DC
:103BD0004D7A2C432343C0B204011444C4F880310D
:103BE0008B7A13F00F038B72C0B203011344D3F826
:103BF00084311B091B01C0B204011444C4F8843190
:103C0000C0B203011344D3F884318C7A2343C0B289
:103C100004011444C4F884318B7B4C7B240454EAA3
:103C200003630C7B53EA0423CC7A2343C0B2040120
:103C30001444C4F888318B7C4C7C240454EA03631C
:103C40000C7C53EA0423CC7B2343C0B2040114440C
:103C5000C4F88C31C0B203011344D3F8803153F05F
:103C60000103C0B204011444C4F88031C0B230BCB6
:103C70007047C9B20B010344D3F8B03113F0040309
:103C80001372137A002B07D1C9B20B010344D3F886
:103C9000B0315B0D136006E0C9B20B010344D3F8E9
:103CA000B031DB085360C9B20B010344D3F8B03123
:103CB00013F002035372C9B20B010344D3F8B431B9
:103CC00013F00F039372C9B20B010344D3F8B4315C
:103CD0001B0AD374C9B20B010344D3F8B831D372B1
:103CE000C9B20B010344D3F8B8311B0A1373C9B22C
:103CF0000B010344D3F8B8311B0C5373C9B20B0149
:103D00000344D3F8B8311B0E9373C9B20B010344BB
:103D1000D3F8BC31D373C9B20B010344D3F8BC311F
:103D20001B0A1374C9B20B010344D3F8BC311B0C3A
:103D30005374C9B20B010344D3F8BC311B0E937406
:103D4000C9B2002904D1C36853F02003C36003E063
:103D5000036953F020030361704702000020C9B2D9
:103D6000002904D1D36813F00303180009E0C9B295
:103D7000012904D1136913F00303180001E00023A3
:103D80001800C0B2704730B4020000204FF6FF7335
:103D9000C9B200291AD114687FF002052C4054F0F2
:103DA00001041460546814F00304012C03D0002BA8
:103DB00001D05B1EF6E7546814F00304012C02D016
:103DC000002420003AE00124200037E0C9B2012994
:103DD00015D11468A408A4001460546814F0030FEB
:103DE00003D0002B01D05B1EF7E7546814F0030FDB
:103DF00002D00024200021E0012420001EE0C9B2EE
:103E0000022919D114686408640054F00204146093
:103E1000546814F00304022C03D0002B01D05B1E65
:103E2000F6E7546814F00304022C02D000242000AA
:103E300004E00124200001E000242000C0B230BCD6
:103E40007047D2B2002A03D043690B43436102E0BA
:103E500043698B434361704770B504000D00002631
:103E6000606928427BD02800012821D0022825D073
:103E7000042829D008282DD0102831D0202835D06A
:103E8000402839D0B0F5807F48D0B0F5007F4BD0C6
:103E9000B0F5806F4ED0B0F5006F51D0B0F5004F47
:103EA00054D0B0F5803F2DD0B0F5003F30D053E076
:103EB0005349A06800F0A6F8060052E00321E0682C
:103EC00000F0A0F806004CE00821E06800F09AF845
:103ED000060046E01021E06800F094F8060040E09B
:103EE0000321206900F08EF806003AE008212069DD
:103EF00000F088F8060034E01021206900F082F814
:103F000006002EE00821606800F07CF8060028E03A
:103F10001021606800F076F8060022E00121A06917
:103F200000F070F806001CE00221A06900F06AF8B9
:103F3000060016E00421A06900F064F8060010E015
:103F40007021A06900F05EF806000AE004216068B4
:103F500000F058F8060004E00020060001E0002010
:103F600006003000C0B270BD0A00012A1DD0042A2C
:103F70001ED0082A1FD0202A20D0402A21D0B2F5F6
:103F8000807F27D0B2F5007F27D0B2F5806F27D091
:103F9000B2F5006F27D0B2F5004F29D0B2F5803FBF
:103FA00012D0B2F5003F12D027E0154A826024E01B
:103FB0000822C26021E01022C2601EE008220261D5
:103FC0001BE01022026118E00822426015E0102276
:103FD000426012E0042242600FE0042242600CE0E2
:103FE0000422426009E0002282610422426004E06F
:103FF0000022826104224260FFE7704700640040B3
:1040000001010100020000200A4202D00123180031
:1040100001E000231800C0B270470000DFF8BC05C3
:10402000DFF8BC150860DFF8B8050068002801D18A
:1040300000205DE00020DFF8A81508710020DFF8FF
:10404000A01588600020DFF89815C8600020DFF810
:10405000901508740020DFF888154874DFF884058F
:10406000DFF87C154861DFF88005DFF8741588619A
:10407000DFF87805DFF86815C861DFF86405406986
:10408000002804D0DFF858058069002801D10020FD
:104090002EE02020DFF8481581F820001020DFF8FE
:1040A000401581F821004FF40070DFF834154862A4
:1040B0002020DFF82C1581F828001020DFF82015CB
:1040C00081F829004FF40070DFF81415C862002051
:1040D000DFF80C1508630020DFF8041548630020A2
:1040E000DFF8FC1488630020DFF8F414C8630120B3
:1040F0007047DFF8FC04DFF8FC140860DFF8F40414
:104100000068002801D100205FE00020DFF8E414FF
:104110000871DFF8E404DFF8DC148860DFF8DC0401
:10412000DFF8D014C8600020DFF8C814087400203D
:10413000DFF8C0144874DFF8C804DFF8B814486129
:10414000DFF8C004DFF8AC148861DFF8BC04DFF8E6
:10415000A414C861DFF89C044069002804D0DFF88B
:1041600094048069002801D100202EE02020DFF88F
:10417000841481F820001020DFF8781481F82100E1
:104180004FF40070DFF86C1448622020DFF86414EC
:1041900081F828001020DFF85C1481F829004FF422
:1041A0000070DFF85014C8620020DFF8481408637C
:1041B0000020DFF8401448630020DFF838148863DB
:1041C0000020DFF83014C8630120704741690164A2
:1041D0000021416400218164416A491EC164704725
:1041E0000200002901D100201AE08868401C4B68B9
:1041F000984206D08868CB68984204D14868002865
:1042000001D100200CE008688B68C2548868401C0B
:104210008860C8688B68984201D2002088600120BD
:1042200070470200002901D100200AE048688B682D
:10423000984201D1002004E008684B6818441060DF
:104240000120704710B40200002901D100200EE0C7
:1042500048688B68984203D100201060002006E077
:1042600008684B681824634318441060012010BC90
:10427000704710B582B00400002C01D100200BE083
:104280000020009014F140016846FFF7CAFF0028A3
:1042900001D0009800E0009816BD10B582B004006F
:1042A000002C01D100200BE00020009014F15001FF
:1042B0006846FFF7C7FF002801D0009800E000988B
:1042C00016BD38B504000D00002C01D101203EE0E0
:1042D000EDB2012D12D1002020630020A063200048
:1042E000FFF774FF2068808950F0040021688881FE
:1042F000012240F225512068FEF778FF206880896E
:1043000050F0040021688881012240F22551206884
:10431000FEF76CFF002240212068FEF792FF206824
:10432000DFF8B812884205D10021DFF8E002FFF77C
:1043300001FA09E02068DFF8B812884204D10021B0
:10434000DFF8CC02FFF7F6F901206074002032BDDF
:10435000F8B504000D001600207C0128FCD00120D7
:104360002074002E0ED0E06A86420BD2A76932007C
:1043700029003800FCF7E8FD2068DFF86012884269
:1043800025D102E07FF0010045E00027BFB2B7422F
:1043900011D2DFF85402BFB2C15D89B2DFF83C022E
:1043A000FEF75AFF8021DFF83402FEF759FF00289C
:1043B000F8D07F1CEAE74021DFF82002FEF750FF2B
:1043C0000028F8D0DFF8140200F0CAF822E02068D4
:1043D000DFF81C1288421DD10027BFB2B74210D2AD
:1043E000DFF82002BFB2C15D89B2DFF80402FEF738
:1043F00033FF80217E48FEF733FF0028F9D07F1C71
:10440000EBE740217A48FEF72BFF0028F9D07848E7
:1044100000F0A6F83000F2BD2DE9F04704000D00D1
:1044200016005FF000080027002D01D0002E01D1FA
:10443000002083E0607C022802D0607C032851D1F8
:104440002000FFF72AFF8146B9F1000F01D10020BB
:1044500074E0032089F80000B846B0453ED2D9F890
:104460001400D9F81010405C05F80800D9F81000C5
:10447000401CC9F8100000F0CEF88246606B401E68
:104480006063504680F31088D9F81000D9F80C10FA
:10449000884220D3002089F80000606D401C6065D0
:1044A000E06D616D884201D20020606518F1010065
:1044B000B0420DD22000FFF7F0FE8146B9F1000FA7
:1044C00003D1404610F1010838E0032089F80000CC
:1044D00018F1010802E018F10108BEE74746B045AF
:1044E000BAD32AE0607C012827D15FF000090020C0
:1044F0008046B04521D22000FFF7BBFE8146B9F1CE
:10450000000F01D1404619E099F8000005F80800B5
:1045100000F081F88246206B401E2063504680F3F5
:104520001088606C401C6064E06C616C884201D251
:104530000020606418F10108DBE74046BDE8F08721
:104540000100487C022802D0487C032801D1486B36
:1045500005E0487C012801D1086B00E0002070478D
:1045600038B5040000251D48844202D11C480500CE
:1045700004E01F48844201D11E480500002D0BD0E5
:10458000002028742879012806D1E868002801D085
:10459000E86880470020287131BD38B50400002547
:1045A0000E48844202D10E48050004E010488442BF
:1045B00001D110480500002D0ED015F14001A08852
:1045C000C0B2FFF70DFE002803D0286B401C286303
:1045D00002E0A86B401CA86331BD00000038014018
:1045E000C8260020E81C0020E81E0020E816002055
:1045F0000048004028270020211D00082D1D00082C
:10460000E8200020E8220020E8190020580002409D
:10461000300002407047EFF3108072B67047000020
:10462000DFF80005DFF800150860DFF8FC0400681B
:10463000002801D1002012E01420DFF8EC1488805B
:104640004020DFF8E414C880DFF8E004DFF8D81475
:104650008860DFF8DC04DFF8D014C8600120704700
:104660008168016100214161002181618188491EC9
:10467000C1617047C168016200214162002181620D
:10468000C188491EC162704710B40200002A01D0DF
:10469000002901D1002014E08868401C4B68984232
:1046A00006D08868CB68984204D14868002801D1B8
:1046B000002006E008688B681824634318441060E3
:1046C000012010BC704738B504000D00002C01D04B
:1046D000002D01D1002018E06868A968884201D146
:1046E000002012E0200029686A6818235A43114408
:1046F0001822FCF729FC6868401C6860E868696853
:10470000884201D200206860012032BD38B5040023
:104710000D00002C01D0002D01D1002020E0A86860
:10472000401C6968884206D0A868E968884204D1BC
:104730006868002801D1002012E02868A9681822C2
:104740005143084421001822FCF7FEFBA868401CD6
:10475000A860E868A968884201D20020A86001200A
:1047600032BD10B40200002A01D0002901D100207E
:104770000CE048688B68984201D1002006E0086888
:104780004B681824634318441060012010BC704724
:1047900070B586B004000025DFF88803844203D199
:1047A000DFF88403050003E0DFF8880384421DD1AD
:1047B0000020009015F1100631006846FFF764FFF5
:1047C00000280ED0009A00212000FFF752FAB068AE
:1047D000401CB060F068B168884207D20020B06029
:1047E00004E001AA00212000FFF743FA06B070BDE3
:1047F00070B586B004000025CA48844202D1CA4878
:10480000050002E0CB4884421DD10020009015F144
:10481000100631006846FFF737FF00280ED0009AD7
:1048200000212000FFF725FAB068401CB060F06856
:10483000B168884207D20020B06004E001AA0021DC
:104840002000FFF716FA06B070BD70B586B0040000
:104850000025B448844202D1B348050002E0B548BF
:1048600084421DD10020009015F1100631006846E9
:10487000FFF70AFF00280ED0009A01212000FFF761
:10488000F8F9B068401CB060F068B168884207D29F
:104890000020B06004E001AA01212000FFF7E9F93F
:1048A00006B070BD70B586B0040000259D488442F6
:1048B00002D19D48050002E09E4884421DD100209F
:1048C000009015F1100631006846FFF7DDFE002864
:1048D0000ED0009A01212000FFF7CBF9B068401CF0
:1048E000B060F068B168884207D20020B06004E090
:1048F00001AA01212000FFF7BCF906B070BD10B578
:10490000040008212000FFF7A7FA002806D008219C
:104910002000FFF729FB2000FFF73AFF04212000C9
:10492000FFF79AFA002806D004212000FFF71CFBAD
:104930002000FFF72DFF02212000FFF78DFA00284D
:1049400009D000212000FFF708FA002803D020003A
:10495000FFF74EFFF5E740212000FFF77DFA002822
:1049600006D040212000FFF7FFFA2000FFF76DFF7F
:1049700020212000FFF770FA002806D02021200017
:10498000FFF7F2FA2000FFF760FF10212000FFF789
:1049900063FA002809D001212000FFF7DEF9002882
:1049A00003D02000FFF77EFFF5E710BD70B50400CF
:1049B0000D00002C01D0002D01D1012012E02900B2
:1049C0002068FFF7C3F80600042E01D0002009E09C
:1049D00014F120012800FFF799FE002801D00020E3
:1049E00000E0012070BD38B504000D00002C01D09E
:1049F000002D01D1012009E014F110012800FFF77A
:104A000062FE002801D0002000E0012032BD38B550
:104A100004000020009014F12005002D17D029007B
:104A20006846FFF79EFE002811D000992068FFF726
:104A30008DF8042801D102200AE06868401C6860F3
:104A4000E86869688842EAD200206860E7E70020E9
:104A500032BD7FB50400002537480FC86E4686E892
:104A60000F0020682F49884203D10020ADF80800CC
:104A700009E020682F49884203D10120ADF80800E1
:104A800001E001204BE000208DF80B0001208DF8A3
:104A90000C000020ADF800000420ADF8020000205A
:104AA000ADF804000420ADF8060001208DF80D00DB
:104AB00020681C49884203D128008DF80A0006E0CE
:104AC00020681C49884202D1A81C8DF80A0069465A
:104AD0002068FEF7B1FF6D1C00208DF80B00002050
:104AE0008DF80C000020ADF802000820ADF806009B
:104AF00001208DF80D0020680A49884203D1280062
:104B00008DF80A0006E020680A49884202D1A81CF4
:104B10008DF80A0069462068FEF78EFF002004B079
:104B200070BD000000640040D8270020E824002069
:104B3000E8100020006800405862000810B586B0F8
:104B4000040069462000FFF74EFF002804D16946A3
:104B50002000FFF72BFFF4E72000FFF758FF06B017
:104B600010BD0000DFF8981409780200D2B291421B
:104B700016D0C0B2012808D12021DFF888241160A6
:104B80000121DFF87C2411700AE0C0B2002807D1AF
:104B90002021DFF8742411600021DFF864241170F3
:104BA0007047DFF8681409780200D2B2914216D03B
:104BB000C0B2012808D11021DFF84824116001217A
:104BC000DFF8482411700AE0C0B2002807D1102194
:104BD000DFF8342411600021DFF8302411707047B1
:104BE000C0B2012809D14FF40071DFF81824116018
:104BF0000121DFF81C2411700BE0C0B2002808D19D
:104C00004FF40071DFF8002411600021DFF8002468
:104C100011707047C0B2012809D14FF48071DFF8DC
:104C2000E42311600121DFF8EC2311700BE0C0B226
:104C3000002808D14FF48071DFF8CC2311600021E7
:104C4000DFF8D02311707047DFF8CC03008843F2FF
:104C5000903148434FF4805190FBF1F0DFF8BC13E2
:104C600008607047DFF8B40300687047DFF8A803F6
:104C7000408843F2903148434FF4805190FBF1F06B
:104C8000DFF89C1308607047DFF8940300687047F2
:104C9000DFF8840380884CF6406148434FF480512C
:104CA00090FBF1F0DFF87C1308607047DFF87403C5
:104CB00000687047DFF86003C0884CF640614843E5
:104CC0004FF4805190FBF1F0DFF85C1308607047FF
:104CD000DFF8540300687047DFF83C0300894CF6A6
:104CE000406148434FF4805190FBF1F0DFF83C13F2
:104CF00008607047DFF8340300687047C648408991
:104D000043F2903148434FF4805190FBF1F0C84991
:104D100008607047C64800687047BF4880894CF6F5
:104D2000406148434FF4805190FBF1F0C149086065
:104D30007047C04800687047B748C08943F2903157
:104D400048434FF4805190FBF1F0BB490860704735
:104D5000B94800687047B048008A4CF64061484343
:104D60004FF4805190FBF1F0B44908607047B348AC
:104D700000687047A848408A40F6E44148434FF431
:104D8000805190FBF1F0AE4908607047AC48006874
:104D9000704780B5AB480078002828D1A748006844
:104DA00045F2B861884222DBA4480068B0F5C84FDC
:104DB0001DDC9E48006846F27021884217DA9F4841
:104DC00000689C490968401AC92810DB0120FFF7D8
:104DD000C9FE4FF480719C48FDF7E9FA002803D121
:104DE00002209849087002E0012096490870954811
:104DF0000078002820D09148006845F2B8618842C8
:104E000014DB8D48006842F2117188420EDA89483D
:104E1000006846F27121884208DA884800688549AE
:104E20000968401A00F024F9962805DA0020FFF7F7
:104E300099FE00208349087001BD80B50821834890
:104E4000FDF7B5FA00280BD181480078002812D16F
:104E500001207F490870FEF77AFB7E4908600AE06E
:104E60007B480078012806D1022079490870FEF7B6
:104E70006EFB7949086076480078012811D1FEF769
:104E800066FB74490968FEF765FBB0F5FA6F08D94F
:104E900010216E48FDF78BFA002802D10120FFF7A0
:104EA00080FE6B48007802281AD16A4801686A4877
:104EB0000068FEF74FFBB0F5FA6F0ED9674800782F
:104EC000002803D101206549087006E06348007896
:104ED000022802D103206149087000205C49087053
:104EE00001BD000080B5FFF7AFFEFFF7BFFEFFF783
:104EF000CFFEFFF7DFFEFFF7EFFEFFF7FFFEFFF746
:104F00000CFFFFF719FFFFF726FFFFF733FFFFF74F
:104F100094FFFFF73EFF5148007801281DD100F0B3
:104F200020F9DFED350AB4EE600AF1EE10FA14D57F
:104F300000F017F9DFED310AB4EE600AF1EE10FA75
:104F40000BDB0120FFF72DFE0220444908700120F1
:104F5000FFF746FE0120FFF75DFE4048007802287B
:104F600014D100F0FEF8DFED240AB4EE600AF1EE91
:104F700010FA08DA00F0F5F8DFED200AB4EE600A66
:104F8000F1EE10FA02D50320344908703348007856
:104F9000032830D132480078002806D1012030495A
:104FA0000870FEF7D4FA2F490860FEF7D0FA2D49B1
:104FB0000968FEF7CFFA40F6B93188421BD3FEF7F5
:104FC000C6FA2949086001202849087000202349B1
:104FD00008700020FFF7E5FD0020FFF7C3FD00206B
:104FE000FFF7FEFD0020FFF715FE00201C490870AA
:104FF00000201E49087001BD0000FA45FFFF79C47A
:1050000075280020100C0140140C01407628002067
:105010007728002078280020082800203428002045
:10502000382800203C280020402800204428002068
:10503000482800204C280020502800205428002018
:10504000582800207928002000080140000C014069
:105050007B2800205C280020602800207A2800207F
:105060007C28002064280020682800207D2800205B
:10507000002848BF4042704780B53C48007810F097
:10508000010000280CD100F08EF83848007850F06C
:10509000010036490870FEF75AFA344988605FE02B
:1050A00032480078C0F34000C0B200280CD1FEF7AF
:1050B0004EFA2E498968401A0F2851D32B480078A0
:1050C00050F002002949087028480078C0F3800099
:1050D000C0B2002821D1264800F075F82348B0F965
:1050E000020000F049F8214880ED010A1F480078CD
:1050F00050F004001D490870FEF729FA1B49C860EA
:105100001A48B0F9020000901848406800F0A4F86E
:1051100002000B00174800F0C7F814480078C0F3ED
:105120008000C0B200281BD0FEF711FA0F49C968F1
:10513000401A642814D30D48007810F0FE000B4983
:1051400008700A48007810F0FD0008490870074808
:10515000007810F0FB0005490870002003494880E2
:1051600001BD024890ED010A704700001C28002094
:105170001E2800201C62000880B500B200EE100A54
:10518000B8EEC00A10EE100A00F066F800221E4BBE
:10519000FCF722F800221D4BFCF76EFA00F096F89F
:1051A00000EE100A01BD80B519480088ADF8000076
:1051B00002226946452000F0EAF8042801D00020C8
:1051C00000E0012002BD10B582B004000322694650
:1051D000452000F016F9002801D0002012E002213D
:1051E000684600F017F89DF80210C0B2814201D065
:1051F000002007E09DF800009DF8011051EA002012
:105200002080012016BD00000000704000004440D6
:10521000AE0D000870B40200FF2000252C00250010
:105220000E00EDB2F6B2B54212D2E4B2155D68409E
:1052300008252B00DBB2002B08D0050603D5400063
:1052400090F0310000E040005B1EF3E7641CE6E7ED
:10525000C0B270BC704700005FF0FF0C1CEAD05178
:1052600014BF614506E0C110400721F0E04101F1A3
:105270006051704779B900F0004100020AD0B0FADD
:1052800080FC00FA0CF001F16051A1EB0C5101EB34
:10529000D0214005704741020CBF40F4E0016FF09F
:1052A00000010020704700000EB400B582B003A9D1
:1052B000009102466B460121034878440A30FAF710
:1052C0005DFF06BC5DF810FB6D0F00004FEAF17C3E
:1052D000BCF1E04C2CBFBCF5001F11E05FEA4C0CA8
:1052E00034BFBCF17F5F2EE05FEA9C0C4FEA0C1CE0
:1052F0004FEA3C0CC10071F100414CEB507070471B
:10530000C90241EA5051C00218BF41F0010141F009
:1053100000414FEA6C50C0F10900212810D240EA48
:10532000CC7CCCF1200C11FA0CF070F10040CCF1E7
:10533000200C21FA0CF00CF0004C40EB0C007047F4
:105340004FEACC707047490011F5001F04D84FEAAE
:10535000CC10FF30C0057047C817704780B5402398
:1053600002221421DFF8B002FCF751FA8023022256
:105370001421DFF8A402FCF74AFA8020DFF89C121F
:1053800008604020DFF894120860002002BD2DE97B
:10539000F041040088461500042700F089F8202811
:1053A00003D100F093F8102029E06000C0B200F0B3
:1053B000A2F8002803D100F089F801201FE00020A6
:1053C000060030002900C0B2C9B2884213D298F852
:1053D000000000F090F818F10108002809D1F6B299
:1053E000EDB2681E864202DA0220070003E00020C8
:1053F0000700761CE5E700F069F83800C0B2BDE8A8
:10540000F081F8B504000D00160000F051F82028D6
:1054100003D100F05BF8102020E0600050F00100A4
:10542000C0B200F068F8002803D100F04FF8012066
:1054300014E000200700FFB2F6B2701E874206DAC1
:10544000012000F0ADF828706D1C7F1CF3E70020F0
:1054500000F0A6F8287000F039F80020F2BD80B501
:1054600040206E49086080206D4908603220FEF7B8
:105470008EF88020694908600A20FEF788F84020ED
:10548000674908601420FEF782F8802064490860AC
:105490001920FEF77CF84020604908600A20FEF7DA
:1054A00076F880205D4908600F20FEF770F801BD96
:1054B00080B5FFF7D4FF8020594908601E20FEF711
:1054C00066F8402056490860012002BD80B5802062
:1054D000534908600120FEF75AF840204F49086000
:1054E0000120FEF754F880204C4908600120FEF7A7
:1054F0004EF8002002BD70B5040080260120FEF7A2
:1055000046F82000C0B2304203D0802043490860F2
:1055100002E08020424908600120FEF738F8402070
:105520003E4908600120FEF732F840203C490860FF
:10553000F6B27608F6B2002EE0D10120FEF727F889
:105540008020364908600120FEF721F840203349C9
:1055500008600120FEF71BF832480068C0F3C01055
:1055600010F0010090F0010005000120FEF70FF897
:1055700040202B490860EDB2280070BD10B5040032
:1055800028480068400609D42000441E012801DA9A
:10559000012004E00120FDF7FAFFF1E7002010BD33
:1055A00070B504008025002680201C490860012079
:1055B000FDF7EDFF4020194908601B48FFF7DEFFAB
:1055C0000120FDF7E4FF17480068000600D52E43D0
:1055D0004020134908600120FDF7D9FFEDB26D08A6
:1055E000EDB2002DE3D1E4B2002C02D080200C49B2
:1055F00008600120FDF7CBFF40200849086001202A
:10560000FDF7C5FF4020064908600120FDF7BFFFF8
:105610003000C0B270BD0000000C0140100C014011
:10562000140C0140080C014040420F00BFF34F8FA3
:10563000D848006810F4E060D7490843D5490860AD
:10564000BFF34F8F00BFFDE780B5D448008880B21C
:1056500000F0FF00FE2809D000F0CCF900F0DFF9DF
:10566000FE21CE4800F043FAFFF7E0FF01BD80B510
:10567000FDF74FFFFCF7DEF8C9480068C9494860EC
:10568000C9480068C7498860C8480068C549C860FB
:10569000FCF75FF9FCF7EBF9FCF707FAFCF777FA90
:1056A0005FF4E130FCF7B4FA5FF4E130FCF7F4FAB0
:1056B000FCF742FBBE48FCF73DFCFFF74FFE07201E
:1056C000FCF78DFCFEF7AAFC0121BA48FEF7F9FDB4
:1056D000FEF70FFD0121B848FEF7F3FDB648C0689C
:1056E0008047FEF79DFFB548FEF7BAFFB348FEF7C7
:1056F000C1FFB248FFF7ADF9B148FCF76BFD64207C
:10570000FDF731FFC046C046FFF7B6FCFFF7EAFBE6
:10571000AA48FFF713FA00F01DF800F04EF800F069
:1057200004F87F2000F06CFAEEE780B5FDF70FFF7C
:10573000A4490968FDF70EFFB0F5FA7F09D3FDF71C
:1057400006FFA0490860A048006890F400409E4908
:10575000086001BD80B500208DF80000964800F07B
:1057600057FA002817D001226946934800F067FADB
:105770009DF8000095490978884203D10120944999
:10578000087008E09DF8000092490978884202D12B
:105790000120914908708E4800788F4909780842A5
:1057A0000AD010227F49844800F038FA0020884946
:1057B000087000208849087001BD80B500208DF870
:1057C00000007C48FEF7BCFE002817D00122694685
:1057D0007848FEF721FE9DF800008049097888424C
:1057E00003D101207E49087008E09DF800007D4942
:1057F0000978884202D101207B49087078480078F6
:1058000079490978084210D078480078002803D1F7
:1058100001207649087002E00020744908700020D9
:105820006F4908700020704908707048007800F0D7
:1058300001F801BD30B595B00400E4B2002C00F0D1
:10584000A780FDF784FE6A490968FDF783FE0A28F0
:10585000C0F09E80FDF77BFE65490860FFF702FA05
:1058600002000021684600F0F5F90500EDB22900BC
:1058700089B2684600F00AFAFFF706FA0200012131
:10588000684600F0E7F90500EDB2290089B26846E4
:1058900000F0FCF9FFF70AFA02000221684600F066
:1058A000D9F90500EDB2290089B2684600F0EEF999
:1058B000FFF70EFA02000321684600F0CBF905005D
:1058C000EDB2290089B2684600F0E0F9FFF712FA5C
:1058D00002000421684600F0BDF90500EDB2290080
:1058E00089B2684600F0D2F9FFF714FA02000521E8
:1058F000684600F0AFF90500EDB2290089B26846AC
:1059000000F0C4F9FFF715FA02000621684600F01E
:10591000A1F90500EDB2290089B2684600F0B6F998
:10592000FFF716FA02000721684600F093F9050018
:10593000EDB2290089B2684600F0A8F9FFF717FA1E
:1059400002000821684600F085F90500EDB2290043
:1059500089B2684600F09AF9FFF718FA02000921A7
:10596000684600F077F90500EDB2290089B2684673
:1059700000F08CF9FDF7BBFA02000A21684600F03E
:1059800069F90500EDB2290089B2684600F07EF998
:1059900015B030BD0CED00E00400FA0510F8FF1F53
:1059A000E8F7FF1F00000020ECF7FF1FF0F7FF1FD4
:1059B000C0C62D00C826002028270020D827002098
:1059C000006400402C2800200C080140DC0000206E
:1059D00070280020DD00002071280020DE0000205B
:1059E00073280020DF000020742800207228002087
:1059F00030280020DFF8B401DFF8B4110860DFF8C8
:105A0000B401DFF8AC110860DFF8A001DFF8A811DD
:105A10000860DFF8A001DFF8A0110860704738B512
:105A2000A524042500F097F8002801D000200400E8
:105A30005FF0805000F0C4F80500EDB2042D53D1A2
:105A4000DFF86801DFF8A8110860DFF86801DFF807
:105A5000A0110860DFF86401006850F02000DFF852
:105A60005C110860DFF85401006850F04000DFF876
:105A70004C1108605FF0805000F0A2F80500EDB214
:105A8000042D25D1DFF8340100687FF020010840A3
:105A9000DFF828110860DFF82401006850F01000DA
:105AA000DFF818110860DFF84C0104804FF47040F3
:105AB00000F086F80500EDB2052D15D0DFF8FC00EA
:105AC00000687FF010010840DFF8F01008600BE07C
:105AD000EDB2052D08D0DFF8E40000687FF010017A
